{
  "contractName": "ZombieFactory",
  "abi": [
    {
      "anonymous": false,
      "inputs": [
        {
          "indexed": false,
          "internalType": "address",
          "name": "zombie",
          "type": "address"
        },
        {
          "indexed": false,
          "internalType": "uint256",
          "name": "dna",
          "type": "uint256"
        }
      ],
      "name": "Created",
      "type": "event"
    },
    {
      "inputs": [
        {
          "internalType": "uint256",
          "name": "",
          "type": "uint256"
        }
      ],
      "name": "zombies",
      "outputs": [
        {
          "internalType": "contract Zombie",
          "name": "",
          "type": "address"
        }
      ],
      "stateMutability": "view",
      "type": "function"
    },
    {
      "inputs": [
        {
          "internalType": "string",
          "name": "_name",
          "type": "string"
        }
      ],
      "name": "createRandomZombie",
      "outputs": [],
      "stateMutability": "nonpayable",
      "type": "function"
    },
    {
      "inputs": [
        {
          "internalType": "string",
          "name": "_name",
          "type": "string"
        }
      ],
      "name": "createRandomZombieV2",
      "outputs": [],
      "stateMutability": "nonpayable",
      "type": "function"
    },
    {
      "inputs": [
        {
          "internalType": "string",
          "name": "_name",
          "type": "string"
        }
      ],
      "name": "getSalt",
      "outputs": [
        {
          "internalType": "bytes32",
          "name": "",
          "type": "bytes32"
        }
      ],
      "stateMutability": "pure",
      "type": "function"
    },
    {
      "inputs": [
        {
          "internalType": "string",
          "name": "_name",
          "type": "string"
        },
        {
          "internalType": "uint256",
          "name": "_dna",
          "type": "uint256"
        }
      ],
      "name": "getBytecode",
      "outputs": [
        {
          "internalType": "bytes",
          "name": "",
          "type": "bytes"
        }
      ],
      "stateMutability": "pure",
      "type": "function"
    }
  ],
  "bytecode": "0x60806040526010600055600054600a6200001a9190620001be565b6001553480156200002a57600080fd5b506200020f565b7f4e487b7100000000000000000000000000000000000000000000000000000000600052601160045260246000fd5b60008160011c9050919050565b6000808291508390505b6001851115620000bf5780860481111562000097576200009662000031565b5b6001851615620000a75780820291505b8081029050620000b78562000060565b945062000077565b94509492505050565b600082620000da5760019050620001ad565b81620000ea5760009050620001ad565b81600181146200010357600281146200010e5762000144565b6001915050620001ad565b60ff84111562000123576200012262000031565b5b8360020a9150848211156200013d576200013c62000031565b5b50620001ad565b5060208310610133831016604e8410600b84101617156200017e5782820a90508381111562000178576200017762000031565b5b620001ad565b6200018d84848460016200006d565b92509050818404811115620001a757620001a662000031565b5b81810290505b9392505050565b6000819050919050565b6000620001cb82620001b4565b9150620001d883620001b4565b9250620002077fffffffffffffffffffffffffffffffffffffffffffffffffffffffffffffffff8484620000c8565b905092915050565b611959806200021f6000396000f3fe60806040523480156200001157600080fd5b50600436106200005e5760003560e01c80632052465e146200006357806323aa4fd614620000995780637bff0a0114620000cf578063d66ee75a14620000ef578063eefdc61c1462000125575b600080fd5b6200008160048036038101906200007b919062000559565b62000145565b60405162000090919062000616565b60405180910390f35b620000b76004803603810190620000b1919062000795565b62000185565b604051620000c6919062000884565b60405180910390f35b620000ed6004803603810190620000e79190620008a8565b62000201565b005b6200010d6004803603810190620001079190620008a8565b62000220565b6040516200011c919062000914565b60405180910390f35b6200014360048036038101906200013d9190620008a8565b62000257565b005b600281815481106200015657600080fd5b906000526020600020016000915054906101000a900473ffffffffffffffffffffffffffffffffffffffff1681565b60606000604051806020016200019b90620004fc565b6020820181038252601f19601f820116604052508484604051602001620001c49291906200099f565b604051602081830303815290604052604051602001620001e692919062000a15565b60405160208183030381529060405290508091505092915050565b60006200020e8262000276565b90506200021c8282620002bf565b5050565b6000808260405160200162000236919062000a7f565b60405160208183030381529060405280519060200120905080915050919050565b6000620002648262000276565b9050620002728282620003a1565b5050565b600080826040516020016200028c919062000a7f565b6040516020818303038152906040528051906020012060001c905060015481620002b7919062000ac7565b915050919050565b60008282604051620002d190620004fc565b620002de9291906200099f565b604051809103906000f080158015620002fb573d6000803e3d6000fd5b5090506002819080600181540180825580915050600190039060005260206000200160009091909190916101000a81548173ffffffffffffffffffffffffffffffffffffffff021916908373ffffffffffffffffffffffffffffffffffffffff1602179055507f0ce3610e89a4bb9ec9359763f99110ed52a4abaea0b62028a1637e242ca2768b81836040516200039492919062000b24565b60405180910390a1505050565b60008083604051602001620003b7919062000a7f565b604051602081830303815290604052805190602001209050600060405180602001620003e390620004fc565b6020820181038252601f19601f8201166040525085856040516020016200040c9291906200099f565b6040516020818303038152906040526040516020016200042e92919062000a15565b6040516020818303038152906040529050818151602083016000f59250823b6200045757600080fd5b6002839080600181540180825580915050600190039060005260206000200160009091909190916101000a81548173ffffffffffffffffffffffffffffffffffffffff021916908373ffffffffffffffffffffffffffffffffffffffff1602179055507f0ce3610e89a4bb9ec9359763f99110ed52a4abaea0b62028a1637e242ca2768b8385604051620004ed92919062000b24565b60405180910390a15050505050565b610dd28062000b5283390190565b6000604051905090565b600080fd5b600080fd5b6000819050919050565b62000533816200051e565b81146200053f57600080fd5b50565b600081359050620005538162000528565b92915050565b60006020828403121562000572576200057162000514565b5b6000620005828482850162000542565b91505092915050565b600073ffffffffffffffffffffffffffffffffffffffff82169050919050565b6000819050919050565b6000620005d6620005d0620005ca846200058b565b620005ab565b6200058b565b9050919050565b6000620005ea82620005b5565b9050919050565b6000620005fe82620005dd565b9050919050565b6200061081620005f1565b82525050565b60006020820190506200062d600083018462000605565b92915050565b600080fd5b600080fd5b6000601f19601f8301169050919050565b7f4e487b7100000000000000000000000000000000000000000000000000000000600052604160045260246000fd5b62000688826200063d565b810181811067ffffffffffffffff82111715620006aa57620006a96200064e565b5b80604052505050565b6000620006bf6200050a565b9050620006cd82826200067d565b919050565b600067ffffffffffffffff821115620006f057620006ef6200064e565b5b620006fb826200063d565b9050602081019050919050565b82818337600083830152505050565b60006200072e6200072884620006d2565b620006b3565b9050828152602081018484840111156200074d576200074c62000638565b5b6200075a84828562000708565b509392505050565b600082601f8301126200077a576200077962000633565b5b81356200078c84826020860162000717565b91505092915050565b60008060408385031215620007af57620007ae62000514565b5b600083013567ffffffffffffffff811115620007d057620007cf62000519565b5b620007de8582860162000762565b9250506020620007f18582860162000542565b9150509250929050565b600081519050919050565b600082825260208201905092915050565b60005b83811015620008375780820151818401526020810190506200081a565b60008484015250505050565b60006200085082620007fb565b6200085c818562000806565b93506200086e81856020860162000817565b62000879816200063d565b840191505092915050565b60006020820190508181036000830152620008a0818462000843565b905092915050565b600060208284031215620008c157620008c062000514565b5b600082013567ffffffffffffffff811115620008e257620008e162000519565b5b620008f08482850162000762565b91505092915050565b6000819050919050565b6200090e81620008f9565b82525050565b60006020820190506200092b600083018462000903565b92915050565b600081519050919050565b600082825260208201905092915050565b60006200095a8262000931565b6200096681856200093c565b93506200097881856020860162000817565b62000983816200063d565b840191505092915050565b62000999816200051e565b82525050565b60006040820190508181036000830152620009bb81856200094d565b9050620009cc60208301846200098e565b9392505050565b600081905092915050565b6000620009eb82620007fb565b620009f78185620009d3565b935062000a0981856020860162000817565b80840191505092915050565b600062000a238285620009de565b915062000a318284620009de565b91508190509392505050565b600081905092915050565b600062000a558262000931565b62000a61818562000a3d565b935062000a7381856020860162000817565b80840191505092915050565b600062000a8d828462000a48565b915081905092915050565b7f4e487b7100000000000000000000000000000000000000000000000000000000600052601260045260246000fd5b600062000ad4826200051e565b915062000ae1836200051e565b92508262000af45762000af362000a98565b5b828206905092915050565b600062000b0c826200058b565b9050919050565b62000b1e8162000aff565b82525050565b600060408201905062000b3b600083018562000b13565b62000b4a60208301846200098e565b939250505056fe60806040523480156200001157600080fd5b5060405162000dd238038062000dd2833981810160405281019062000037919062000226565b8160009081620000489190620004cd565b50806001819055505050620005b4565b6000604051905090565b600080fd5b600080fd5b600080fd5b600080fd5b6000601f19601f8301169050919050565b7f4e487b7100000000000000000000000000000000000000000000000000000000600052604160045260246000fd5b620000c18262000076565b810181811067ffffffffffffffff82111715620000e357620000e262000087565b5b80604052505050565b6000620000f862000058565b9050620001068282620000b6565b919050565b600067ffffffffffffffff82111562000129576200012862000087565b5b620001348262000076565b9050602081019050919050565b60005b838110156200016157808201518184015260208101905062000144565b60008484015250505050565b6000620001846200017e846200010b565b620000ec565b905082815260208101848484011115620001a357620001a262000071565b5b620001b084828562000141565b509392505050565b600082601f830112620001d057620001cf6200006c565b5b8151620001e28482602086016200016d565b91505092915050565b6000819050919050565b6200020081620001eb565b81146200020c57600080fd5b50565b6000815190506200022081620001f5565b92915050565b6000806040838503121562000240576200023f62000062565b5b600083015167ffffffffffffffff81111562000261576200026062000067565b5b6200026f85828601620001b8565b925050602062000282858286016200020f565b9150509250929050565b600081519050919050565b7f4e487b7100000000000000000000000000000000000000000000000000000000600052602260045260246000fd5b60006002820490506001821680620002df57607f821691505b602082108103620002f557620002f462000297565b5b50919050565b60008190508160005260206000209050919050565b60006020601f8301049050919050565b600082821b905092915050565b6000600883026200035f7fffffffffffffffffffffffffffffffffffffffffffffffffffffffffffffffff8262000320565b6200036b868362000320565b95508019841693508086168417925050509392505050565b6000819050919050565b6000620003ae620003a8620003a284620001eb565b62000383565b620001eb565b9050919050565b6000819050919050565b620003ca836200038d565b620003e2620003d982620003b5565b8484546200032d565b825550505050565b600090565b620003f9620003ea565b62000406818484620003bf565b505050565b5b818110156200042e5762000422600082620003ef565b6001810190506200040c565b5050565b601f8211156200047d576200044781620002fb565b620004528462000310565b8101602085101562000462578190505b6200047a620004718562000310565b8301826200040b565b50505b505050565b600082821c905092915050565b6000620004a26000198460080262000482565b1980831691505092915050565b6000620004bd83836200048f565b9150826002028217905092915050565b620004d8826200028c565b67ffffffffffffffff811115620004f457620004f362000087565b5b620005008254620002c6565b6200050d82828562000432565b600060209050601f83116001811462000545576000841562000530578287015190505b6200053c8582620004af565b865550620005ac565b601f1984166200055586620002fb565b60005b828110156200057f5784890151825560018201915060208501945060208101905062000558565b868310156200059f57848901516200059b601f8916826200048f565b8355505b6001600288020188555050505b505050505050565b61080e80620005c46000396000f3fe608060405234801561001057600080fd5b50600436106100565760003560e01c8062f55d9d1461005b57806306fdde0314610077578063281e0413146100955780637e904090146100c6578063a06897be146100e4575b600080fd5b610075600480360381019061007091906104ad565b610115565b005b61007f61012e565b60405161008c919061056a565b60405180910390f35b6100af60048036038101906100aa9190610600565b6101bc565b6040516100bd9291906106b0565b60405180910390f35b6100ce610300565b6040516100db91906106ef565b60405180910390f35b6100fe60048036038101906100f99190610600565b610306565b60405161010c9291906106b0565b60405180910390f35b8073ffffffffffffffffffffffffffffffffffffffff16ff5b6000805461013b90610739565b80601f016020809104026020016040519081016040528092919081815260200182805461016790610739565b80156101b45780601f10610189576101008083540402835291602001916101b4565b820191906000526020600020905b81548152906001019060200180831161019757829003601f168201915b505050505081565b600060606000808573ffffffffffffffffffffffffffffffffffffffff16856040516024016101eb91906106ef565b6040516020818303038152906040527f6466414b000000000000000000000000000000000000000000000000000000007bffffffffffffffffffffffffffffffffffffffffffffffffffffffff19166020820180517bffffffffffffffffffffffffffffffffffffffffffffffffffffffff838183161783525050505060405161027591906107a6565b600060405180830381855af49150503d80600081146102b0576040519150601f19603f3d011682016040523d82523d6000602084013e6102b5565b606091505b50915091507f72c984ca97c07b7f6065d4640ee7827c24c0936abc2e6e257e3cf01738fa16b1826040516102e991906107bd565b60405180910390a181819350935050509250929050565b60015481565b600060606000808573ffffffffffffffffffffffffffffffffffffffff168560405160240161033591906106ef565b6040516020818303038152906040527f6466414b000000000000000000000000000000000000000000000000000000007bffffffffffffffffffffffffffffffffffffffffffffffffffffffff19166020820180517bffffffffffffffffffffffffffffffffffffffffffffffffffffffff83818316178352505050506040516103bf91906107a6565b600060405180830381855afa9150503d80600081146103fa576040519150601f19603f3d011682016040523d82523d6000602084013e6103ff565b606091505b50915091507f72c984ca97c07b7f6065d4640ee7827c24c0936abc2e6e257e3cf01738fa16b18260405161043391906107bd565b60405180910390a181819350935050509250929050565b600080fd5b600073ffffffffffffffffffffffffffffffffffffffff82169050919050565b600061047a8261044f565b9050919050565b61048a8161046f565b811461049557600080fd5b50565b6000813590506104a781610481565b92915050565b6000602082840312156104c3576104c261044a565b5b60006104d184828501610498565b91505092915050565b600081519050919050565b600082825260208201905092915050565b60005b838110156105145780820151818401526020810190506104f9565b60008484015250505050565b6000601f19601f8301169050919050565b600061053c826104da565b61054681856104e5565b93506105568185602086016104f6565b61055f81610520565b840191505092915050565b600060208201905081810360008301526105848184610531565b905092915050565b60006105978261044f565b9050919050565b6105a78161058c565b81146105b257600080fd5b50565b6000813590506105c48161059e565b92915050565b6000819050919050565b6105dd816105ca565b81146105e857600080fd5b50565b6000813590506105fa816105d4565b92915050565b600080604083850312156106175761061661044a565b5b6000610625858286016105b5565b9250506020610636858286016105eb565b9150509250929050565b60008115159050919050565b61065581610640565b82525050565b600081519050919050565b600082825260208201905092915050565b60006106828261065b565b61068c8185610666565b935061069c8185602086016104f6565b6106a581610520565b840191505092915050565b60006040820190506106c5600083018561064c565b81810360208301526106d78184610677565b90509392505050565b6106e9816105ca565b82525050565b600060208201905061070460008301846106e0565b92915050565b7f4e487b7100000000000000000000000000000000000000000000000000000000600052602260045260246000fd5b6000600282049050600182168061075157607f821691505b6020821081036107645761076361070a565b5b50919050565b600081905092915050565b60006107808261065b565b61078a818561076a565b935061079a8185602086016104f6565b80840191505092915050565b60006107b28284610775565b915081905092915050565b60006020820190506107d2600083018461064c565b9291505056fea26469706673582212209bd46ae8b0c0ef9012cd4032e963012a604d076891551fd1119c87c8341ec29564736f6c63430008110033a26469706673582212203c20e19c7c127ef65254172d765c45865411f171a45a59db9b9a531c854c5b7464736f6c63430008110033",
  "immutableReferences": {},
  "source": "// SPDX-License-Identifier: MIT\npragma solidity ^0.8.1;\n\nimport \"./Zombie.sol\";\n\ncontract ZombieFactory {\n  // declare our event here\n\n  uint dnaDigits = 16;\n  uint dnaModulus = 10 ** dnaDigits;\n\n  Zombie[] public zombies;\n\n  event Created(address zombie, uint dna);\n\n  function _createZombie(string memory _name, uint _dna) private {\n    Zombie zombie = new Zombie(_name, _dna);\n    zombies.push(zombie);\n\n    emit Created(address(zombie), _dna);\n  }\n\n  function _generateRandomDna(string memory _str) private view returns (uint) {\n    uint rand = uint(keccak256(abi.encodePacked(_str)));\n    return rand % dnaModulus;\n  }\n\n  function createRandomZombie(string memory _name) public {\n    uint randDna = _generateRandomDna(_name);\n    _createZombie(_name, randDna);\n  }\n\n  function _createZombieV2(string memory _name, uint _dna) private {\n    address zombie;\n    bytes32 salt = keccak256(abi.encodePacked(_name));\n    bytes memory bytecode = abi.encodePacked(\n      type(Zombie).creationCode,\n      abi.encode(_name, _dna)\n    );\n    assembly {\n      zombie := create2(0, add(bytecode, 0x20), mload(bytecode), salt)\n      if iszero(extcodesize(zombie)) {\n        revert(0, 0)\n      }\n    }\n    zombies.push(Zombie(zombie));\n\n    emit Created(zombie, _dna);\n  }\n\n  function createRandomZombieV2(string memory _name) public {\n    uint randDna = _generateRandomDna(_name);\n    _createZombieV2(_name, randDna);\n  }\n\n  function getSalt(string memory _name) public pure returns (bytes32) {\n    bytes32 salt = keccak256(abi.encodePacked(_name));\n    return salt;\n  }\n\n  function getBytecode(\n    string memory _name,\n    uint _dna\n  ) public pure returns (bytes memory) {\n    bytes memory bytecode = abi.encodePacked(\n      type(Zombie).creationCode,\n      abi.encode(_name, _dna)\n    );\n    return bytecode;\n  }\n}\n",
  "sourcePath": "/Users/yoonsoo/smartContract/zombieFactory/contracts/ZombieFactory.sol",
  "compiler": {
    "name": "solc",
    "version": "0.8.17+commit.8df45f5f.Emscripten.clang"
  },
  "schemaVersion": "3.4.11",
  "updatedAt": "2023-03-30T05:51:19.945Z",
  "devdoc": {
    "kind": "dev",
    "methods": {},
    "version": 1
  },
  "userdoc": {
    "kind": "user",
    "methods": {},
    "version": 1
  }
}