{
  "contractName": "ZombieFactory",
  "abi": [
    {
      "anonymous": false,
      "inputs": [
        {
          "indexed": false,
          "internalType": "address",
          "name": "zombie",
          "type": "address"
        },
        {
          "indexed": false,
          "internalType": "uint256",
          "name": "dna",
          "type": "uint256"
        }
      ],
      "name": "Created",
      "type": "event"
    },
    {
      "inputs": [
        {
          "internalType": "uint256",
          "name": "",
          "type": "uint256"
        }
      ],
      "name": "zombies",
      "outputs": [
        {
          "internalType": "contract Zombie",
          "name": "",
          "type": "address"
        }
      ],
      "stateMutability": "view",
      "type": "function"
    },
    {
      "inputs": [
        {
          "internalType": "string",
          "name": "_name",
          "type": "string"
        }
      ],
      "name": "createRandomZombie",
      "outputs": [],
      "stateMutability": "nonpayable",
      "type": "function"
    },
    {
      "inputs": [
        {
          "internalType": "string",
          "name": "_name",
          "type": "string"
        }
      ],
      "name": "createRandomZombieV2",
      "outputs": [],
      "stateMutability": "nonpayable",
      "type": "function"
    }
  ],
  "bytecode": "0x60806040526010600055600054600a6200001a9190620001be565b6001553480156200002a57600080fd5b506200020f565b7f4e487b7100000000000000000000000000000000000000000000000000000000600052601160045260246000fd5b60008160011c9050919050565b6000808291508390505b6001851115620000bf5780860481111562000097576200009662000031565b5b6001851615620000a75780820291505b8081029050620000b78562000060565b945062000077565b94509492505050565b600082620000da5760019050620001ad565b81620000ea5760009050620001ad565b81600181146200010357600281146200010e5762000144565b6001915050620001ad565b60ff84111562000123576200012262000031565b5b8360020a9150848211156200013d576200013c62000031565b5b50620001ad565b5060208310610133831016604e8410600b84101617156200017e5782820a90508381111562000178576200017762000031565b5b620001ad565b6200018d84848460016200006d565b92509050818404811115620001a757620001a662000031565b5b81810290505b9392505050565b6000819050919050565b6000620001cb82620001b4565b9150620001d883620001b4565b9250620002077fffffffffffffffffffffffffffffffffffffffffffffffffffffffffffffffff8484620000c8565b905092915050565b61137c806200021f6000396000f3fe60806040523480156200001157600080fd5b5060043610620000465760003560e01c80632052465e146200004b5780637bff0a011462000081578063eefdc61c14620000a1575b600080fd5b62000069600480360381019062000063919062000422565b620000c1565b604051620000789190620004df565b60405180910390f35b6200009f60048036038101906200009991906200065e565b62000101565b005b620000bf6004803603810190620000b991906200065e565b62000120565b005b60028181548110620000d257600080fd5b906000526020600020016000915054906101000a900473ffffffffffffffffffffffffffffffffffffffff1681565b60006200010e826200013f565b90506200011c828262000188565b5050565b60006200012d826200013f565b90506200013b82826200026a565b5050565b6000808260405160200162000155919062000728565b6040516020818303038152906040528051906020012060001c90506001548162000180919062000770565b915050919050565b600082826040516200019a90620003c5565b620001a79291906200080b565b604051809103906000f080158015620001c4573d6000803e3d6000fd5b5090506002819080600181540180825580915050600190039060005260206000200160009091909190916101000a81548173ffffffffffffffffffffffffffffffffffffffff021916908373ffffffffffffffffffffffffffffffffffffffff1602179055507f0ce3610e89a4bb9ec9359763f99110ed52a4abaea0b62028a1637e242ca2768b81836040516200025d92919062000864565b60405180910390a1505050565b6000808360405160200162000280919062000728565b604051602081830303815290604052805190602001209050600060405180602001620002ac90620003c5565b6020820181038252601f19601f820116604052508585604051602001620002d59291906200080b565b604051602081830303815290604052604051602001620002f7929190620008de565b6040516020818303038152906040529050818151602083016000f59250823b6200032057600080fd5b6002839080600181540180825580915050600190039060005260206000200160009091909190916101000a81548173ffffffffffffffffffffffffffffffffffffffff021916908373ffffffffffffffffffffffffffffffffffffffff1602179055507f0ce3610e89a4bb9ec9359763f99110ed52a4abaea0b62028a1637e242ca2768b8385604051620003b692919062000864565b60405180910390a15050505050565b610a40806200090783390190565b6000604051905090565b600080fd5b600080fd5b6000819050919050565b620003fc81620003e7565b81146200040857600080fd5b50565b6000813590506200041c81620003f1565b92915050565b6000602082840312156200043b576200043a620003dd565b5b60006200044b848285016200040b565b91505092915050565b600073ffffffffffffffffffffffffffffffffffffffff82169050919050565b6000819050919050565b60006200049f62000499620004938462000454565b62000474565b62000454565b9050919050565b6000620004b3826200047e565b9050919050565b6000620004c782620004a6565b9050919050565b620004d981620004ba565b82525050565b6000602082019050620004f66000830184620004ce565b92915050565b600080fd5b600080fd5b6000601f19601f8301169050919050565b7f4e487b7100000000000000000000000000000000000000000000000000000000600052604160045260246000fd5b620005518262000506565b810181811067ffffffffffffffff8211171562000573576200057262000517565b5b80604052505050565b600062000588620003d3565b905062000596828262000546565b919050565b600067ffffffffffffffff821115620005b957620005b862000517565b5b620005c48262000506565b9050602081019050919050565b82818337600083830152505050565b6000620005f7620005f1846200059b565b6200057c565b90508281526020810184848401111562000616576200061562000501565b5b62000623848285620005d1565b509392505050565b600082601f830112620006435762000642620004fc565b5b813562000655848260208601620005e0565b91505092915050565b600060208284031215620006775762000676620003dd565b5b600082013567ffffffffffffffff811115620006985762000697620003e2565b5b620006a6848285016200062b565b91505092915050565b600081519050919050565b600081905092915050565b60005b83811015620006e5578082015181840152602081019050620006c8565b60008484015250505050565b6000620006fe82620006af565b6200070a8185620006ba565b93506200071c818560208601620006c5565b80840191505092915050565b6000620007368284620006f1565b915081905092915050565b7f4e487b7100000000000000000000000000000000000000000000000000000000600052601260045260246000fd5b60006200077d82620003e7565b91506200078a83620003e7565b9250826200079d576200079c62000741565b5b828206905092915050565b600082825260208201905092915050565b6000620007c682620006af565b620007d28185620007a8565b9350620007e4818560208601620006c5565b620007ef8162000506565b840191505092915050565b6200080581620003e7565b82525050565b60006040820190508181036000830152620008278185620007b9565b9050620008386020830184620007fa565b9392505050565b60006200084c8262000454565b9050919050565b6200085e816200083f565b82525050565b60006040820190506200087b600083018562000853565b6200088a6020830184620007fa565b9392505050565b600081519050919050565b600081905092915050565b6000620008b48262000891565b620008c081856200089c565b9350620008d2818560208601620006c5565b80840191505092915050565b6000620008ec8285620008a7565b9150620008fa8284620008a7565b9150819050939250505056fe60806040523480156200001157600080fd5b5060405162000a4038038062000a40833981810160405281019062000037919062000267565b81600090816200004891906200050e565b508060018190555033600260006101000a81548173ffffffffffffffffffffffffffffffffffffffff021916908373ffffffffffffffffffffffffffffffffffffffff1602179055505050620005f5565b6000604051905090565b600080fd5b600080fd5b600080fd5b600080fd5b6000601f19601f8301169050919050565b7f4e487b7100000000000000000000000000000000000000000000000000000000600052604160045260246000fd5b6200010282620000b7565b810181811067ffffffffffffffff82111715620001245762000123620000c8565b5b80604052505050565b60006200013962000099565b9050620001478282620000f7565b919050565b600067ffffffffffffffff8211156200016a5762000169620000c8565b5b6200017582620000b7565b9050602081019050919050565b60005b83811015620001a257808201518184015260208101905062000185565b60008484015250505050565b6000620001c5620001bf846200014c565b6200012d565b905082815260208101848484011115620001e457620001e3620000b2565b5b620001f184828562000182565b509392505050565b600082601f830112620002115762000210620000ad565b5b815162000223848260208601620001ae565b91505092915050565b6000819050919050565b62000241816200022c565b81146200024d57600080fd5b50565b600081519050620002618162000236565b92915050565b60008060408385031215620002815762000280620000a3565b5b600083015167ffffffffffffffff811115620002a257620002a1620000a8565b5b620002b085828601620001f9565b9250506020620002c38582860162000250565b9150509250929050565b600081519050919050565b7f4e487b7100000000000000000000000000000000000000000000000000000000600052602260045260246000fd5b600060028204905060018216806200032057607f821691505b602082108103620003365762000335620002d8565b5b50919050565b60008190508160005260206000209050919050565b60006020601f8301049050919050565b600082821b905092915050565b600060088302620003a07fffffffffffffffffffffffffffffffffffffffffffffffffffffffffffffffff8262000361565b620003ac868362000361565b95508019841693508086168417925050509392505050565b6000819050919050565b6000620003ef620003e9620003e3846200022c565b620003c4565b6200022c565b9050919050565b6000819050919050565b6200040b83620003ce565b620004236200041a82620003f6565b8484546200036e565b825550505050565b600090565b6200043a6200042b565b6200044781848462000400565b505050565b5b818110156200046f576200046360008262000430565b6001810190506200044d565b5050565b601f821115620004be5762000488816200033c565b620004938462000351565b81016020851015620004a3578190505b620004bb620004b28562000351565b8301826200044c565b50505b505050565b600082821c905092915050565b6000620004e360001984600802620004c3565b1980831691505092915050565b6000620004fe8383620004d0565b9150826002028217905092915050565b6200051982620002cd565b67ffffffffffffffff811115620005355762000534620000c8565b5b62000541825462000307565b6200054e82828562000473565b600060209050601f83116001811462000586576000841562000571578287015190505b6200057d8582620004f0565b865550620005ed565b601f19841662000596866200033c565b60005b82811015620005c05784890151825560018201915060208501945060208101905062000599565b86831015620005e05784890151620005dc601f891682620004d0565b8355505b6001600288020188555050505b505050505050565b61043b80620006056000396000f3fe608060405234801561001057600080fd5b506004361061004b5760003560e01c8062f55d9d1461005057806306fdde031461006c5780637e9040901461008a578063c45a0155146100a8575b600080fd5b61006a60048036038101906100659190610256565b6100c6565b005b610074610139565b6040516100819190610313565b60405180910390f35b6100926101c7565b60405161009f919061034e565b60405180910390f35b6100b06101cd565b6040516100bd919061038a565b60405180910390f35b600260009054906101000a900473ffffffffffffffffffffffffffffffffffffffff1673ffffffffffffffffffffffffffffffffffffffff163373ffffffffffffffffffffffffffffffffffffffff161461012057600080fd5b8073ffffffffffffffffffffffffffffffffffffffff16ff5b60008054610146906103d4565b80601f0160208091040260200160405190810160405280929190818152602001828054610172906103d4565b80156101bf5780601f10610194576101008083540402835291602001916101bf565b820191906000526020600020905b8154815290600101906020018083116101a257829003601f168201915b505050505081565b60015481565b600260009054906101000a900473ffffffffffffffffffffffffffffffffffffffff1681565b600080fd5b600073ffffffffffffffffffffffffffffffffffffffff82169050919050565b6000610223826101f8565b9050919050565b61023381610218565b811461023e57600080fd5b50565b6000813590506102508161022a565b92915050565b60006020828403121561026c5761026b6101f3565b5b600061027a84828501610241565b91505092915050565b600081519050919050565b600082825260208201905092915050565b60005b838110156102bd5780820151818401526020810190506102a2565b60008484015250505050565b6000601f19601f8301169050919050565b60006102e582610283565b6102ef818561028e565b93506102ff81856020860161029f565b610308816102c9565b840191505092915050565b6000602082019050818103600083015261032d81846102da565b905092915050565b6000819050919050565b61034881610335565b82525050565b6000602082019050610363600083018461033f565b92915050565b6000610374826101f8565b9050919050565b61038481610369565b82525050565b600060208201905061039f600083018461037b565b92915050565b7f4e487b7100000000000000000000000000000000000000000000000000000000600052602260045260246000fd5b600060028204905060018216806103ec57607f821691505b6020821081036103ff576103fe6103a5565b5b5091905056fea264697066735822122069ec94314b90ef741e8d03854a2db7169258f7f888c330c9c41458bdaaf26d2a64736f6c63430008110033a2646970667358221220b554b8d9a07c6afcee72d46b854542e0b1082b994b46db659f87d24b7337b8b464736f6c63430008110033",
  "immutableReferences": {},
  "source": "// SPDX-License-Identifier: MIT\npragma solidity ^0.8.1;\n\nimport \"./Zombie.sol\";\n\ncontract ZombieFactory {\n  // declare our event here\n\n  uint dnaDigits = 16;\n  uint dnaModulus = 10 ** dnaDigits;\n\n  Zombie[] public zombies;\n\n  event Created(address zombie, uint dna);\n\n  function _createZombie(string memory _name, uint _dna) private {\n    Zombie zombie = new Zombie(_name, _dna);\n    zombies.push(zombie);\n\n    emit Created(address(zombie), _dna);\n  }\n\n  function _generateRandomDna(string memory _str) private view returns (uint) {\n    uint rand = uint(keccak256(abi.encodePacked(_str)));\n    return rand % dnaModulus;\n  }\n\n  function createRandomZombie(string memory _name) public {\n    uint randDna = _generateRandomDna(_name);\n    _createZombie(_name, randDna);\n  }\n\n  function _createZombieV2(string memory _name, uint _dna) private {\n    address zombie;\n    bytes32 salt = keccak256(abi.encodePacked(_name));\n    bytes memory bytecode = abi.encodePacked(\n      type(Zombie).creationCode,\n      abi.encode(_name, _dna)\n    );\n    assembly {\n      zombie := create2(0, add(bytecode, 0x20), mload(bytecode), salt)\n      if iszero(extcodesize(zombie)) {\n        revert(0, 0)\n      }\n    }\n    zombies.push(Zombie(zombie));\n\n    emit Created(zombie, _dna);\n  }\n\n  function createRandomZombieV2(string memory _name) public {\n    uint randDna = _generateRandomDna(_name);\n    _createZombieV2(_name, randDna);\n  }\n}\n",
  "sourcePath": "/Users/yoonsoo/smartContract/zombieFactory/contracts/ZombieFactory.sol",
  "compiler": {
    "name": "solc",
    "version": "0.8.17+commit.8df45f5f.Emscripten.clang"
  },
  "schemaVersion": "3.4.11",
  "updatedAt": "2023-03-12T06:19:14.672Z",
  "devdoc": {
    "kind": "dev",
    "methods": {},
    "version": 1
  },
  "userdoc": {
    "kind": "user",
    "methods": {},
    "version": 1
  }
}