{
  "contractName": "ZombieTemp",
  "abi": [
    {
      "inputs": [],
      "name": "dna",
      "outputs": [
        {
          "internalType": "uint256",
          "name": "",
          "type": "uint256"
        }
      ],
      "stateMutability": "view",
      "type": "function"
    },
    {
      "inputs": [],
      "name": "name",
      "outputs": [
        {
          "internalType": "string",
          "name": "",
          "type": "string"
        }
      ],
      "stateMutability": "view",
      "type": "function"
    },
    {
      "inputs": [
        {
          "internalType": "uint256",
          "name": "_dna",
          "type": "uint256"
        }
      ],
      "name": "setVars",
      "outputs": [],
      "stateMutability": "nonpayable",
      "type": "function"
    }
  ],
  "bytecode": "0x608060405234801561001057600080fd5b50610316806100206000396000f3fe608060405234801561001057600080fd5b50600436106100415760003560e01c806306fdde03146100465780636466414b146100645780637e90409014610080575b600080fd5b61004e61009e565b60405161005b91906101cc565b60405180910390f35b61007e60048036038101906100799190610229565b61012c565b005b610088610136565b6040516100959190610265565b60405180910390f35b600080546100ab906102af565b80601f01602080910402602001604051908101604052809291908181526020018280546100d7906102af565b80156101245780601f106100f957610100808354040283529160200191610124565b820191906000526020600020905b81548152906001019060200180831161010757829003601f168201915b505050505081565b8060018190555050565b60015481565b600081519050919050565b600082825260208201905092915050565b60005b8381101561017657808201518184015260208101905061015b565b60008484015250505050565b6000601f19601f8301169050919050565b600061019e8261013c565b6101a88185610147565b93506101b8818560208601610158565b6101c181610182565b840191505092915050565b600060208201905081810360008301526101e68184610193565b905092915050565b600080fd5b6000819050919050565b610206816101f3565b811461021157600080fd5b50565b600081359050610223816101fd565b92915050565b60006020828403121561023f5761023e6101ee565b5b600061024d84828501610214565b91505092915050565b61025f816101f3565b82525050565b600060208201905061027a6000830184610256565b92915050565b7f4e487b7100000000000000000000000000000000000000000000000000000000600052602260045260246000fd5b600060028204905060018216806102c757607f821691505b6020821081036102da576102d9610280565b5b5091905056fea2646970667358221220e37ad5c93237534ee20c93b5522fcc94329b99a9c266b5cb6401c05cfabe1f0664736f6c63430008110033",
  "immutableReferences": {},
  "source": "// SPDX-License-Identifier: MIT\npragma solidity ^0.8.1;\n\ncontract ZombieTemp {\n  string public name;\n  uint public dna;\n\n  function setVars(uint _dna) public {\n    dna = _dna;\n  }\n}\n",
  "sourcePath": "/Users/yoonsoo/smartContract/zombieFactory/contracts/ZombieTemp.sol",
  "compiler": {
    "name": "solc",
    "version": "0.8.17+commit.8df45f5f.Emscripten.clang"
  },
  "schemaVersion": "3.4.11",
  "updatedAt": "2023-03-30T05:43:27.162Z",
  "devdoc": {
    "kind": "dev",
    "methods": {},
    "version": 1
  },
  "userdoc": {
    "kind": "user",
    "methods": {},
    "version": 1
  }
}